:100000000C9462000C948A000C948A000C948A0070
:100010000C948A000C948A000C948A000C948A0038
:100020000C948A000C948A000C948A000C948A0028
:100030000C948A000C948A000C948A000C948A0018
:100040000C9455040C948A000C948A000C948A0039
:100050000C948A000C948A000C948A000C948A00F8
:100060000C948A000C948A000000000024002700F1
:100070002A0000000000250028002B0000000000DE
:1000800023002600290004040404040404040202DA
:100090000202020203030303030301020408102007
:1000A0004080010204081020010204081020000012
:1000B0000008000201000003040700000000000027
:1000C0000000E50811241FBECFEFD8E0DEBFCDBF92
:1000D00011E0A0E0B1E0EAE5F2E102C005900D9286
:1000E000AE35B107D9F721E0AEE5B1E001C01D9210
:1000F000AE3BB207E1F710E0C2E6D0E004C02197C2
:10010000FE010E942509C136D107C9F70E949F044C
:100110000C942B090C940000AF92BF92CF92DF9207
:10012000EF92FF920F931F93CF93DF936C017B01AC
:100130008B01040F151FEB015E01AE18BF08C0173D
:10014000D10759F06991D601ED91FC910190F081B0
:10015000E02DC6010995892B79F7C501DF91CF9173
:100160001F910F91FF90EF90DF90CF90BF90AF90D5
:100170000895833081F028F4813099F08230A9F01D
:1001800008958730A9F08830C9F08430B1F48091A7
:1001900080008F7D03C0809180008F7780938000E6
:1001A000089584B58F7784BD089584B58F7DFBCF86
:1001B0008091B0008F778093B00008958091B00057
:1001C0008F7DF9CFCF93DF93282F30E0F901E255EF
:1001D000FF4F8491F901E656FF4FD491F901EA5798
:1001E000FF4FC491CC23A1F081110E94B900EC2FE4
:1001F000F0E0EE0FFF1FE458FF4FA591B491EC9192
:10020000ED2381E090E009F480E0DF91CF91089543
:1002100080E090E0FACF1F93CF93DF93282F30E058
:10022000F901E255FF4F8491F901E656FF4FD49151
:10023000F901EA57FF4FC491CC23A9F0162F811181
:100240000E94B900EC2FF0E0EE0FFF1FEE58FF4FB9
:10025000A591B4918FB7F894EC91111108C0D09585
:10026000DE23DC938FBFDF91CF911F910895DE2BAA
:10027000F8CFCF93DF9390E0FC01E656FF4F249137
:100280008A579F4FFC0184918823D1F090E0880F1A
:10029000991FFC01E859FF4FA591B491FC01EE585C
:1002A000FF4FC591D49161110EC09FB7F8948C9106
:1002B000E22FE0958E238C932881E223E8839FBF71
:1002C000DF91CF9108958FB7F894EC91E22BEC93E6
:1002D0008FBFF6CF3FB7F89480916301909164018E
:1002E000A0916501B091660126B5A89B05C02F3F7E
:1002F00019F00196A11DB11D3FBFBA2FA92F982F4C
:100300008827BC01CD01620F711D811D911D42E046
:10031000660F771F881F991F4A95D1F708958F920E
:100320009F92AF92BF92CF92DF92EF92FF924B01DA
:100330005C010E946A016B017C010E946A016C19D8
:100340007D098E099F09683E734081059105A8F3D8
:1003500021E0821A9108A108B10888EEC80E83E056
:10036000D81EE11CF11C81149104A104B10429F7E9
:10037000FF90EF90DF90CF90BF90AF909F908F90C5
:100380000895089590E080E008954091A201509171
:10039000A30190910001E2E8F1E030E020E0421793
:1003A000530794F1608169132BC06181681328C0E1
:1003B0008AE0829FF001839FF00D1124EE57FE4FDB
:1003C000828180930001823391F02CF4803341F0DC
:1003D000813351F00895833369F0843371F00895C7
:1003E00061E088E00C940B0161E089E0FBCF61E003
:1003F0008AE0F8CF61E08BE0F5CF61E08CE0F2CFEE
:100400002F5F3F4F3A96CBCF089560E088E00E947F
:100410000B0160E089E00E940B0160E08AE00E942D
:100420000B0160E08BE00E940B0160E08CE00E9419
:100430000B0160E086E00E940B0160E087E00C9415
:100440000B014091A2015091A30190910001E2E8BB
:10045000F1E030E020E02417350754F4608169139F
:1004600003C06181681751F02F5F3F4F3A96F3CF79
:1004700061E087E00E940B0180E0089581E008952B
:100480008F929F92AF92BF920F931F93CF93DF9360
:10049000CDB7DEB7A1970FB6F894DEBF0FBECDBFC4
:1004A00019A2423008F44AE08E010F5D1F4F842EDE
:1004B000912CB12CA12CA50194010E940309E62FD7
:1004C000B901CA01EA3044F5E05DD801EE938D012F
:1004D000232B242B252B79F790E080E0109769F0EF
:1004E000FD0101900020E9F73197AF014A1B5B0B3A
:1004F000BD0186EA91E00E948C00A1960FB6F894A7
:10050000DEBF0FBECDBFDF91CF911F910F91BF9086
:10051000AF909F908F900895E95CD7CFFC01019038
:100520000020E9F73197AF01481B590BBC0186EA5F
:1005300091E00C948C00CF93DF93EC0160E08E810E
:100540000E940B0161E08E810E940B0160E08E81B0
:100550000E940B018BE891E00197F1F7DF91CF91B9
:100560000895CF92DF92EF92FF920F931F93CF9354
:10057000DF936C017C0187E0E80EF11CD0E0C0E065
:10058000062F10E0B8010C2E02C0759567950A94ED
:10059000E2F76170F70181917F010E940B012196C2
:1005A000C430D10579F7C601DF91CF911F910F912A
:1005B000FF90EF90DF90CF900C949B02CF92DF9250
:1005C000EF92FF920F931F93CF93DF93EC01F62EE0
:1005D000642F8C810E940B018D818F3F19F060E0A8
:1005E0000E940B010F2D10E08F8584FF25C06E0146
:1005F00087E0C80ED11CF12CE12CB8010E2C02C0F2
:10060000759567950A94E2F76170F60181916F0123
:100610000E940B01FFEFEF1AFF0A88E0E816F104D1
:1006200061F7CE01DF91CF911F910F91FF90EF9075
:10063000DF90CF900C949B02B80184E0759567958C
:100640008A95E1F7CE010E94B1026F2DCE01DF91B4
:10065000CF911F910F91FF90EF90DF90CF900C946E
:10066000B10240E0682F86EA91E00C94DE0281E05E
:100670000E9431038BE39FE10197F1F70895CF9337
:10068000DF93823029F49091B50198609093B50181
:100690008093B9011092BA0180E48093BB0180E19C
:1006A0008093BC0180E58093BD0161E08091AA0147
:1006B0000E9439018091AB018F3F19F061E00E94E7
:1006C000390161E08091AC010E943901C6EAD1E0B4
:1006D0009E01265A31408091B50184FD0BC084E013
:1006E00090E021962817390744F461E08E810E943A
:1006F0003901EECF88E090E0F4CF8BE39DE00197E5
:10070000F1F760E08091AA010E940B0160E0809106
:10071000AC010E940B018091AB018F3F19F060E0AA
:100720000E940B018091B50184FD34C063E086EA2C
:1007300091E00E94B102CBE4D6E4CE010197F1F73B
:1007400063E086EA91E00E94B1022197F1F763E04D
:1007500086EA91E00E94B10283E592E00197F1F709
:1007600062E086EA91E00E94B1028091B501806268
:100770000E94310384E08093B6018CE00E94310333
:100780000E94370382E08093B70186E0DF91CF912A
:100790000C94310380620E9431038BE496E401974C
:1007A000F1F78091B50180620E94310383E592E008
:1007B0000197F1F78091B50180620E943103D5CF96
:1007C0009091B901691710F06FEF690FE62FF0E013
:1007D000EA55FE4F9489890F80680C94310341E0FB
:1007E0000E94DE0281E090E0089541E0682F86EAF1
:1007F00091E00E94DE0281E090E00895CF92DF92C6
:10080000EF92FF92CF93DF9360E080E00E94E003DD
:100810008DE091E00E948E0261E080E00E94E003A2
:10082000C090A201D090A3018AE08C9DE0018D9D33
:10083000D00D1124CE57DE4F88810E94F50361E070
:1008400082E00E94E00389810E94F50361E084E078
:100850000E94E0038A810E94F50361E086E00E9425
:10086000E0030D2C000CEE08FF084AE0C701B601BA
:10087000F7FE0BC08DE20E94F50366277727CB01B8
:100880006C197D098E099F094AE00E94400261E0CF
:1008900087E00E94E0038DE191E0DF91CF91FF902E
:1008A000EF90DF90CF900C948E021F920F920FB6B4
:1008B0000F9211242F933F938F939F93AF93BF93E6
:1008C00080915F0190916001A0916101B0916201FE
:1008D00030915E0123E0230F2D3758F50196A11DBD
:1008E000B11D20935E0180935F0190936001A093FE
:1008F0006101B09362018091630190916401A091C4
:100900006501B09166010196A11DB11D809363013F
:1009100090936401A0936501B0936601BF91AF917C
:100920009F918F913F912F910F900FBE0F901F902D
:10093000189526E8230F0296A11DB11DD2CF7894F9
:1009400084B5826084BD84B5816084BD85B58260D4
:1009500085BD85B5816085BD80916E008160809385
:100960006E001092810080918100826080938100EE
:1009700080918100816080938100809180008160FE
:10098000809380008091B10084608093B100809159
:10099000B00081608093B00080917A008460809381
:1009A0007A0080917A00826080937A0080917A0048
:1009B000816080937A0080917A00806880937A00C9
:1009C0001092C10082E00E943F0360E080E00E943C
:1009D000390160E081E00E94390160E082E00E941C
:1009E000390160E083E00E94390160E084E00E9408
:1009F000390160E085E00E94390161E088E00E94F1
:100A0000390161E089E00E94390161E08AE00E94D9
:100A1000390161E08BE00E94390161E08CE00E94C5
:100A2000390161E086E00E94390161E087E00E94BF
:100A3000390161E083E10E94390161E082E10E94B5
:100A4000390161E081E10E94390161E080E10E94A9
:100A5000390161E08FE00E94390161E08EE00E947F
:100A60003901D0E2CAE052E0E52EF12C63E0A62E77
:100A7000B12C66246394712C93E3492E22E3522E09
:100A800031E3832E40E3942E8091A4019091A5013F
:100A90008130910509F451C14CF4892B41F1E0E01A
:100AA000F0E0EF2B89F30E940000E6CF8230910541
:100AB00009F438C2039799F760E080E00E94E003F0
:100AC0008DE491E00E948E0261E080E00E94E003EC
:100AD00080910001ECE7F1E09191891709F44FC38F
:100AE00091E0E138F907C1F761E087E04AC30E946D
:100AF000FE0380E00E94E2000197E9F466E970E0FD
:100B000080E090E00E948F018091A0019091A1016E
:100B10002091A2013091A301C29FF001C39FF00D6B
:100B20001124EE57FE4FE80FF91F90820196909323
:100B3000A1018093A00181E00E94E2000197F1F4FD
:100B40000091A0011091A10166E970E080E090E0C1
:100B50000E948F018091A2019091A301C89FF00192
:100B6000C99FF00D1124EE57FE4FE00FF11F808258
:100B70000F5F1F4F1093A1010093A00182E00E941C
:100B8000E2000197F1F40091A0011091A10166E942
:100B900070E080E090E00E948F018091A20190912E
:100BA000A301C89FF001C99FF00D1124EE57FE4F1D
:100BB000E00FF11F50820F5F1F4F1093A1010093B0
:100BC000A00183E00E94E2000197F1F40091A001EE
:100BD0001091A10166E970E080E090E00E948F0131
:100BE0008091A2019091A301C89FF001C99FF00DCF
:100BF0001124EE57FE4FE00FF11F40820F5F1F4F91
:100C00001093A1010093A00184E00E94E2000197EB
:100C1000F9F40091A0011091A10166E970E080E073
:100C200090E00E948F018091A2019091A301C89F42
:100C3000F001C99FF00D1124EE57FE4FE00FF11F98
:100C400084E380830F5F1F4F1093A1010093A001E5
:100C50008091A0019091A101039709F042C00E94E8
:100C6000FE0368EC70E080E090E00E948F018091CC
:100C7000A2019091A301AC0141505109C89F90017C
:100C8000C99F300D11242E573E4F57FD1EC0C89FDF
:100C9000F001C99FF00D1124EE57FE4F89010A5053
:100CA00011097081D8016C9176130BC0295031095C
:100CB0006181D9012C91621304C0D083D183D28386
:100CC0000197415051099801E0CF1092A101109273
:100CD000A00101969093A3018093A20181E08093EB
:100CE00081018091A2019091A3010A9731F4709241
:100CF000A5016092A4010E94370385E00E94E200F2
:100D00008C01019709F0CBCE66E970E080E090E0BD
:100D10000E948F018091A0019091A101892B09F07F
:100D2000BECE80918101882309F4B9CE1093A5012C
:100D30000093A4010E943703B2CE60E080E00E94DD
:100D4000E00387E291E00E948E0261E080E00E9471
:100D5000E00386E391E00E948E0261E087E00E945A
:100D6000E00310917C01812F0E94F50361E089E08E
:100D70000E94E003C0907D018C2D0E94F50361E08C
:100D80008BE00E94E003D0907E018D2D0E94F50340
:100D900061E08DE00E94E00330907F01832D0E948E
:100DA000F50361E08FE00E94E00320908001822D36
:100DB0000E94F50380E00E94E2000197B1F466E929
:100DC00070E080E090E00E948F01103249F4809141
:100DD0007A0190917B01019690937B0180937A0137
:100DE00090927C0181E08093790181E00E94E20091
:100DF0000197C1F400917A0110917B0166E970E0DE
:100E000080E090E00E948F01B0E2CB1206C00F5F3D
:100E10001F4F10937B0100937A0180927D0181E046
:100E20008093790182E00E94E2000197C1F4009171
:100E30007A0110917B0166E970E080E090E00E9409
:100E40008F01E0E2DE1206C00F5F1F4F10937B019F
:100E500000937A0150927E0181E08093790183E0D2
:100E60000E94E2000197C1F400917A0110917B0188
:100E700066E970E080E090E00E948F01F0E23F12AE
:100E800006C00F5F1F4F10937B0100937A014092C1
:100E90007F0181E08093790184E00E94E200019764
:100EA000C9F400917A0110917B0166E970E080E05D
:100EB00090E00E948F0180E2281206C00F5F1F4F52
:100EC00010937B0100937A0194E39093800181E079
:100ED0008093790180917A0190917B01059761F46B
:100EE00068EC70E080E090E00E948F01F092A50134
:100EF000E092A4010E94370385E00E94E20001977E
:100F000009F0CDCD66E970E080E090E00E948F01AD
:100F100080917901882309F4C2CDF092A501E09275
:100F2000A40108CF60E080E00E94E0038EE391E03E
:100F30000E948E0287E6C82E81E0D82E8601312CD1
:100F400061E0832D0E94E003D8018D918D010E9404
:100F5000F5033394B0E13B12F3CF87E00E94E20047
:100F6000892B09F0C6C080E00E94E2000197F9F4E5
:100F7000009177011091780166E970E080E090E0DF
:100F80000E948F010E94050280E30E9421028823B3
:100F900009F4D7C0F801E959FE4F908280E30E941E
:100FA000C5010F5F1F4F109378010093770181E017
:100FB0000E94E2000197F9F4009177011091780105
:100FC00066E970E080E090E00E948F010E940502D7
:100FD00081E30E942102882309F4B8C0F801E9598D
:100FE000FE4F808281E30E94C5010F5F1F4F109367
:100FF00078010093770182E00E94E2000197F9F402
:10100000009177011091780166E970E080E090E04E
:101010000E948F010E94050282E30E942102882320
:1010200009F499C0F801E959FE4F508282E30E9409
:10103000C5010F5F1F4F109378010093770183E084
:101040000E94E2000197F9F4009177011091780174
:1010500066E970E080E090E00E948F010E94050246
:1010600083E30E942102882309F47AC0F801E95938
:10107000FE4F408283E30E94C5010F5F1F4F109314
:1010800078010093770184E00E94E2000197F9F46F
:10109000009177011091780166E970E080E090E0BE
:1010A0000E948F010E94050284E30E94210288238E
:1010B00009F45BC0F801E959FE4F84E380830E9484
:1010C000C5010F5F1F4F1093780100937701809146
:1010D000770190917801409761F468EC70E080E0CE
:1010E00090E00E948F01B092A501A092A4010E94FD
:1010F000370385E00E94E200019709F0D0CC66E951
:1011000070E080E090E00E948F0187E00E94E200A2
:10111000019781F566E970E080E090E00E948F0120
:101120000E943703D601DD936D01B7E7CB16B1E01E
:10113000DB06C1F710927801109277010E94050238
:10114000AECC61E087E00E940B0131CF61E087E027
:101150000E940B0150CF61E087E00E940B016FCF2E
:1011600061E087E00E940B018ECF61E087E00E9482
:101170000B01ADCFB092A501A092A401DBCD61E03F
:1011800086E00E940B0185E00E94E200019709F0D1
:1011900086CC66E970E080E090E00E948F01F092DA
:1011A000A501E092A4010E9405020E943703E7E630
:1011B000F1E0D193A1E0E737FA07D9F7109278016F
:1011C00010927701909200016ACCE6EAF1E0138276
:1011D000128285E091E09183808383E184838FEFA5
:1011E000858382E1868381E1878380E180878FE048
:1011F00081878EE082871386148615861686178669
:1012000081E00C943F03A1E21A2EAA1BBB1BFD0137
:101210000DC0AA1FBB1FEE1FFF1FA217B307E407D5
:10122000F50720F0A21BB30BE40BF50B661F771F2D
:10123000881F991F1A9469F760957095809590950D
:101240009B01AC01BD01CF010895EE0FFF1F05907A
:0A125000F491E02D0994F894FFCF0B
:10125A003000000000EF038C00C201C1014D4F4E67
:10126A00544152204155544F4D41544F00747261BC
:10127A006E736963616F00444546494E4952204680
:10128A00494E4149530046696E6169732000494ECF
:10129A00534552452050414C4156524100434F4E0E
:0E12AA004649524D412050414C4156524100A0
:00000001FF
