:100000000C9463000C948B000C948B000C948B006C
:100010000C948B000C948B000C948B000C94230795
:100020000C948B000C948B000C948B000C94C907DF
:100030000C948B000C948B000C948B000C948B0014
:100040000C947F070C948B000C948B000C948B0009
:100050000C948B000C948B000C948B000C948B00F4
:100060000C948B000C948B000000000024002700EF
:100070002A000000000023002600290000000008DC
:10008000000201000003040700000000000000005F
:10009000010204081020408001020408102001021F
:1000A0000408102000000000250028002B00040494
:1000B0000404040404040202020202020303030310
:1000C00003030200890B11241FBECFEFD8E0DEBF6F
:1000D000CDBF11E0A0E0B1E0E4E6F8E102C0059098
:1000E0000D92AC37B107D9F722E0ACE7B1E001C01F
:1000F0001D92A335B207E1F710E0C3E6D0E004C0DB
:100100002197FE010E942A0CC236D107C9F70E942E
:10011000A0080C94300C0C940000AF92BF92CF92C8
:10012000DF92EF92FF920F931F93CF93DF936C01B7
:100130007B018B01040F151FEB015E01AE18BF0898
:10014000C017D10759F06991D601ED91FC9101904A
:10015000F081E02DC6010995892B79F7C501DF9162
:10016000CF911F910F91FF90EF90DF90CF90BF90B4
:10017000AF900895833081F028F4813099F0823077
:10018000A9F008958730A9F08830C9F08430B1F41F
:10019000809180008F7D03C0809180008F77809355
:1001A0008000089584B58F7784BD089584B58F7DD0
:1001B000FBCF8091B0008F778093B000089580913D
:1001C000B0008F7DF9CFCF93DF93282F30E0F90176
:1001D000E458FF4F8491F901E057FF4FD491F901A2
:1001E000E255FF4FC491CC23A1F081110E94BA00C7
:1001F000EC2FF0E0EE0FFF1FEE58FF4FA591B491EA
:10020000EC91ED2381E090E009F480E0DF91CF9163
:10021000089580E090E0FACF1F93CF93DF93282FCB
:1002200030E0F901E458FF4F8491F901E057FF4FA6
:10023000D491F901E255FF4FC491CC23A9F0162FB8
:1002400081110E94BA00EC2FF0E0EE0FFF1FEC5579
:10025000FF4FA591B4918FB7F894EC91111108C09C
:10026000D095DE23DC938FBFDF91CF911F9108954E
:10027000DE2BF8CF9091010189130BC0E2ECF0E086
:10028000E4919FEF90930101E13049F028F0E230D2
:1002900061F060E00C940C0110926E00FACF909126
:1002A0006F009D7F90936F00F4CF909170009D7FC1
:1002B0009093700091E09093B0009091B100987F7E
:1002C00094609093B1001092B300E3CFCF93DF938B
:1002D00090E0FC01E057FF4F249182559F4FFC01B5
:1002E00084918823D1F090E0880F991FFC01E85990
:1002F000FF4FA591B491FC01EC55FF4FC591D491EE
:1003000061110EC09FB7F8948C91E22FE0958E2377
:100310008C932881E223E8839FBFDF91CF910895DA
:100320008FB7F894EC91E22BEC938FBFF6CFCF937D
:10033000809101018D3021F08F3F59F1CF910895C7
:10034000E2ECF0E0C491C7FDF9CF61E08DE00E94DE
:100350006601CC2309F48BC0C23009F09FC08091A4
:10036000B100887F83608093B10085EA8093B300F9
:100370008FEF9FEFDC0180932F0290933002A093C8
:100380003102B093320280917000826080937000DD
:10039000D5CF8DE080930101E2ECF0E0C491CF3F36
:1003A00069F2C13021F150F0C23009F43EC0C7FDFE
:1003B000C5CF61E08DE00E946601CECF14BC15BCB4
:1003C00084B5826084BD85B5816085BDEBEBF0E0CE
:1003D000E491F0E0EE0FFF1FEC55FF4F85919491F3
:1003E000EDE9F0E0E491E0932E02C0E0AECF109290
:1003F000800010928100809181008860809381004C
:1004000080918100816080938100EBEBF0E0E491CA
:10041000F0E0EE0FFF1FEC55FF4F85919491EDE951
:10042000F0E0E491E0932D0290CF1092B000109292
:10043000B1008091B00082608093B0008091B100E3
:1004400081608093B100EBEBF0E0E491F0E0EE0F1F
:10045000FF1FEC55FF4F8591949190932C02809350
:100460002B02EDE9F0E0E491E0932A026ECF85B52E
:10047000887F836085BD82E587BD8FEF9FEFDC01BC
:100480008093370290933802A0933902B0933A02D6
:1004900080916E00826080936E0050CFC130E9F48D
:1004A00080918100887F81608093810084ED94E158
:1004B00090938900809388008FEF9FEFDC018093F9
:1004C000330290933402A0933502B09336028091A8
:1004D0006F00826080936F0031CFC23021F0C11174
:1004E0002DCF84EDC9CF84ED41CF3FB7F8948091F3
:1004F000A9019091AA01A091AB01B091AC0126B5E0
:10050000A89B05C02F3F19F00196A11DB11D3FBF4B
:10051000BA2FA92F982F8827BC01CD01620F711D1A
:10052000811D911D42E0660F771F881F991F4A9514
:10053000D1F708958F929F92AF92BF92CF92DF92A0
:10054000EF92FF924B015C010E9475026B017C01EE
:100550000E9475026C197D098E099F09683E7340DF
:1005600081059105A8F321E0821A9108A108B1083C
:1005700088EEC80E83E0D81EE11CF11C81149104A2
:10058000A104B10429F7FF90EF90DF90CF90BF90C6
:10059000AF909F908F900895CF92DF92EF92FF924D
:1005A000CF93DF93EC01603282E07807CCF5653BB6
:1005B000710514F064EB70E0898128E830E0281BB5
:1005C000310987FD3395220F331F220F331F690135
:1005D000330FEE08FF088A8128E532E0281B310935
:1005E00087FD3395220F331F220F331F032E000C7C
:1005F000440B550B2C193D094E095F09DB0177FFB0
:1006000002C0B0E0A0E00E94E50B24EB30E040E047
:1006100050E00E94BB0BC20ED31EE41EF51EB601B5
:10062000E881EC3070F5298188E890E0821B91091F
:1006300027FD9395880F991F880F991F68177907D1
:100640007CF02A8188E592E0821B910927FD939531
:10065000880F991F880F991F681779070CF4CB0131
:100660000297880F991F4FB7F8942E2F30E0F901A9
:10067000EE0FFF1FE20FF31FE058FE4F92838183BE
:100680004FBFDF91CF91FF90EF90DF90CF90089513
:100690001F93CF93DF93EC01162F88818C3008F0E5
:1006A0004EC061E0812F0E9466018881282F30E0D2
:1006B000F901EE0FFF1FE20FF31FE058FE4F1F730B
:1006C0006081607C612B608319821A822CE0622F2A
:1006D0000E941E0C829FB001112430E020E0AB018B
:1006E000420F531FFA01EE0FFF1FE40FF51FE058F2
:1006F000FE4F908196FD16C02F5F3F4F2C30310585
:1007000071F781110FC01092800082E08093810008
:100710001092850010928400B19A80916F008260DF
:1007200080936F00E8818E2F90E0FC01EE0FFF1F99
:10073000E80FF91FE058FE4F808180648083888134
:10074000DF91CF911F910895089590E080E0089582
:100750001F93CF93DF93EC01162F6CE271E080E0E2
:1007600090E00E949A02C95FDD4F8881803249F48F
:10077000809121029091220201969093220280930F
:100780002102188381E080932002DF91CF911F9195
:100790000895CF93C82F6CE271E080E090E00E9452
:1007A0009A02809126029091270220912402309192
:1007B0002502F901EE0FFF1FE20FF31FE454FE4F75
:1007C000E80FF91FC08301969093270280932602B9
:1007D000CF9108950E94970164EF71E080E090E06E
:1007E0000E949A028DE00E943A0164EF71E080E07D
:1007F00090E00E949A020E94970164EF71E080E00D
:1008000090E00E949A028DE00E943A0181E080937C
:100810001F020895CF93DF9310927D0110927C0107
:10082000C0917C01D0917D01CB35D105FCF4BE0196
:1008300089EB91E00E94CC02BE0186EB91E00E9420
:10084000CC02BE0183EB91E00E94CC02BE0180EBA2
:1008500091E00E94CC02BE018DEA91E00E94CC02A0
:100860002196D0937D01C0937C01DACFDF91CF91A7
:1008700008950F931F93CF93DF93C82F6CE271E01D
:1008800080E090E00E949A020E940A0420912402D3
:100890003091250250910001ECEBF1E0DF0190E096
:1008A00080E0821793075CF44C91451305C01196C4
:1008B0006C911197C61761F001961396F2CF81E003
:1008C00080931F02DF91CF911F910F910C94EA0347
:1008D00000911D0210911E02D801A35FBD4FCC9361
:1008E00090E080E05081451398C05181C51395C0B8
:1008F000FC01EE0FFF1FE80FF91FE454FE4F828149
:1009000080930001823309F45AC07CF4803349F1AA
:100910008133F1F10F5F1F4F10931E0200931D02F0
:10092000DF91CF911F910F910895833309F45EC039
:10093000843381F78AE590E090937D0180937C0178
:10094000C0917C01D0917D01D7FDE4CFBE018DEA3D
:1009500091E00E94CC022197D0937D01C0937C014D
:10096000EFCF8AE590E090937D0180937C01C09168
:100970007C01D0917D01D7FDCDCFBE0189EB91E007
:100980000E94CC022197D0937D01C0937C01EFCFD0
:100990008AE590E090937D0180937C01C0917C0179
:1009A000D0917D01D7FDB6CFBE0186EB91E00E94CC
:1009B000CC022197D0937D01C0937C01EFCF8AE5D3
:1009C00090E090937D0180937C01C0917C01D09157
:1009D0007D01D7FD9FCFBE0183EB91E00E94CC0249
:1009E0002197D0937D01C0937C01EFCF8AE590E001
:1009F00090937D0180937C01C0917C01D0917D0119
:100A0000D7FD88CFBE0180EB91E00E94CC022197F8
:100A1000D0937D01C0937C01EFCF019633962817C8
:100A200039070CF05FCF76CFFC0101900020E9F789
:100A30003197AF01481B590BBC018BE392E00C943A
:100A40008D00CF93DF93EC0160E08E810E940C015A
:100A500061E08E810E940C0160E08E810E940C0199
:100A60008BE891E00197F1F7DF91CF910895CF9254
:100A7000DF92EF92FF920F931F93CF93DF936C015E
:100A80007C0187E0E80EF11CD0E0C0E0062F10E00A
:100A9000B8010C2E02C0759567950A94E2F7617053
:100AA000F70181917F010E940C012196C430D1058C
:100AB00079F7C601DF91CF911F910F91FF90EF90D1
:100AC000DF90CF900C942105CF92DF92EF92FF92AE
:100AD0000F931F93CF93DF93EC01F62E642F8C813D
:100AE0000E940C018D818F3F19F060E00E940C0183
:100AF0000F2D10E08F8584FF25C06E0187E0C80EA2
:100B0000D11CF12CE12CB8010E2C02C07595679513
:100B10000A94E2F76170F60181916F010E940C0165
:100B2000FFEFEF1AFF0A88E0E816F10461F7CE0143
:100B3000DF91CF911F910F91FF90EF90DF90CF90B9
:100B40000C942105B80184E0759567958A95E1F7C5
:100B5000CE010E9437056F2DCE01DF91CF911F91FD
:100B60000F91FF90EF90DF90CF900C94370540E00D
:100B7000682F8BE392E00C94640581E00E94B70536
:100B80008BE39FE10197F1F70895CF93DF938230D4
:100B900029F490914A02986090934A0280934E0201
:100BA00010924F0280E48093500280E180935102C2
:100BB00080E58093520261E080913F020E946601CD
:100BC000809140028F3F19F061E00E94660161E070
:100BD000809141020E946601CBE3D2E09E012B533B
:100BE000324080914A0284FD0BC084E090E021965F
:100BF0002817390744F461E08E810E946601EECF28
:100C000088E090E0F4CF8BE39DE00197F1F760E09E
:100C100080913F020E940C0160E0809141020E949D
:100C20000C01809140028F3F19F060E00E940C019E
:100C300080914A0284FD34C063E08BE392E00E941D
:100C40003705CBE4D6E4CE010197F1F763E08BE3FF
:100C500092E00E9437052197F1F763E08BE392E081
:100C60000E94370583E592E00197F1F762E08BE39C
:100C700092E00E94370580914A0280620E94B70587
:100C800084E080934B028CE00E94B7050E94BD0572
:100C900082E080934C0286E0DF91CF910C94B705FF
:100CA00080620E94B7058BE496E40197F1F780918A
:100CB0004A0280620E94B70583E592E00197F1F74E
:100CC00080914A0280620E94B705D5CF90914E0272
:100CD000691710F06FEF690FE62FF0E0E55CFD4F4C
:100CE0009489890F80680C94B70541E00E946405DF
:100CF00081E090E0089541E0682F8BE392E00E944C
:100D0000640581E090E008958F929F92AF92BF9228
:100D1000CF92DF92EF92FF920F931F93CF93DF93C7
:100D2000CDB7DEB7A1970FB6F894DEBF0FBECDBF2B
:100D300060E080E00E9466068EE091E00E9414056B
:100D400061E080E00E946606C0902402D0902502F7
:100D50008601000F111F0C0D1D1D04541E4FF801BC
:100D600080810E947B0661E082E00E946606F801B5
:100D700081810E947B0661E084E00E946606F801A2
:100D800082810E947B0661E08AE00E9466060D2C4B
:100D9000000CEE08FF08F7FE3BC08DE20E947B06C8
:100DA00022273327A9012C193D094E095F0919A2F1
:100DB000CE0181967C019AE0892E912CA12CB12C38
:100DC000CA01B901A50194010E94ED0B605DF70114
:100DD00062937F01211531054105510589F7E11421
:100DE000F10419F0C7010E941405A1960FB6F894FA
:100DF000DEBF0FBECDBFDF91CF911F910F91FF904E
:100E0000EF90DF90CF90BF90AF909F908F9008951C
:100E1000A701960119A2CE0181967C018AE0882E55
:100E2000912CA12CB12CCA01B901A50194010E94F9
:100E3000ED0B605DF70162937F01211531054105DE
:100E4000510589F7CCCF1F920F920FB60F92112444
:100E50002F933F934F935F936F937F938F939F93C2
:100E6000AF93BF93EF93FF9380912F029091300245
:100E7000A0913102B0913202892B8A2B8B2BD1F1B8
:100E800090912A02E0912B02F0912C028081892717
:100E9000808380912F0290913002A0913102B09115
:100EA0003202181619061A061B069CF480912F02AE
:100EB00090913002A0913102B09132020197A109C4
:100EC000B10980932F0290933002A0933102B09326
:100ED0003202FF91EF91BF91AF919F918F917F91DE
:100EE0006F915F914F913F912F910F900FBE0F9097
:100EF0001F901895809101010E943A01EACF1F923C
:100F00000F920FB60F9211242F933F938F939F93BD
:100F1000AF93BF938091A5019091A601A091A701E5
:100F2000B091A8013091A40123E0230F2D3758F58B
:100F30000196A11DB11D2093A4018093A50190935A
:100F4000A601A093A701B093A8018091A901909157
:100F5000AA01A091AB01B091AC010196A11DB11DF8
:100F60008093A9019093AA01A093AB01B093AC0127
:100F7000BF91AF919F918F913F912F910F900FBE95
:100F80000F901F90189526E8230F0296A11DB11D02
:100F9000D2CF1F920F920FB60F9211242F933F932F
:100FA0004F935F936F937F938F939F93AF93BF9371
:100FB000CF93DF93EF93FF9380917E01C0917F01E8
:100FC000D0E087FF24C010928500109284008091A9
:100FD0007E018F5F80937E0180917E01082E000C40
:100FE000990B8C179D0724F480917E018C30C4F1FD
:100FF0008091840090918500049680349C4908F487
:101000007AC08091840090918500049676C080918A
:101010007E01082E000C990B8C179D07C4F6E091F9
:101020007E018E2FEE0F990BFC01EE0FFF1FE80FD4
:10103000F91FE058FE4F808186FFC9CFE0917E0105
:101040008E2FEE0F990BFC01EE0FFF1FE80FF91F1B
:10105000E058FE4F808160E08F730E940C01B7CF93
:101060002091840030918500E0917E018E2FEE0F5B
:10107000990BFC01EE0FFF1FE80FF91FE058FE4F20
:1010800081819281820F931F9093890080938800C1
:10109000E0917E018E2FEE0F990BFC01EE0FFF1FEA
:1010A000E80FF91FE058FE4F808186FF11C0E091E4
:1010B0007E018E2FEE0F990BFC01EE0FFF1FE80F44
:1010C000F91FE058FE4F808161E08F730E940C0190
:1010D000FF91EF91DF91CF91BF91AF919F918F9150
:1010E0007F916F915F914F913F912F910F900FBE24
:1010F0000F901F90189580E49CE99093890080934D
:1011000088008FEF80937E01E3CFFC0190917F01F7
:101110009C3098F481E0890F80937F019083892F20
:1011200090E0FC01EE0FFF1FE80FF91FE058FE4FA3
:1011300088EB9BE09283818308958FEF80830895ED
:10114000789484B5826084BD84B5816084BD85B5A2
:10115000826085BD85B5816085BD80916E008160AE
:1011600080936E0010928100809181008260809354
:101170008100809181008160809381008091800056
:101180008160809380008091B10084608093B10081
:101190008091B00081608093B00080917A0084607B
:1011A00080937A0080917A00826080937A008091A7
:1011B0007A00816080937A0080917A0080688093C1
:1011C0007A001092C10060E082E00E94660160E057
:1011D00083E00E94660160E084E00E94660160E0B6
:1011E00085E00E94660160E086E00E94660160E0A2
:1011F00087E00E94660168E070E089EB91E00E9460
:10120000480369E070E086EB91E00E9448036AE0E1
:1012100070E083EB91E00E9448036BE070E080EBAC
:1012200091E00E9448036CE070E08DEA91E00E943A
:10123000480361E08DE00E94660182E00E94C505DE
:1012400061E083E10E94660161E082E10E94660143
:1012500061E081E10E94660161E080E10E94660137
:1012600061E08FE00E94660161E08EE00E9466010D
:10127000ECEBF1E080E2808381838283339692E01D
:10128000E730F907C1F78093070280930802809343
:10129000090280930A0280930B02EDE0F2E080E203
:1012A000819392E0ED31F907D9F760E2F62E00E084
:1012B00010E0C2E0D0E080912802909129028130B4
:1012C000910509F4BDC044F4892BF9F0011511050D
:1012D00091F30E940000EFCF8230910509F442C1E2
:1012E0000397A1F780910C028111D2C18091000176
:1012F000E7E0F2E09191891709F4BCC192E0EC308B
:10130000F907C1F70E94EA03C0C10E94840682E087
:101310000E94E300019719F480E30E94C90383E06F
:101320000E94E300019719F481E30E94C90384E05D
:101330000E94E300019719F482E30E94C90385E04B
:101340000E94E300019719F483E30E94C90386E039
:101350000E94E300019719F484E30E94C90380917D
:101360002602909127020397E9F50E94840660E91E
:1013700071E080E090E00E949A02809124029091B6
:1013800025029C0121503109DC01AA0FBB1FA80FC7
:10139000B91FA754BE4F37FD19C0FC01EE0FFF1F48
:1013A000E80FF91FE454FE4F50814C9154130AC0CA
:1013B000518111964C911197541304C0F082F1821F
:1013C000F2820197215031091397E5CF109227023D
:1013D000109226020196909325028093240281E0C8
:1013E000809323028091240290912502499741F431
:1013F00081E090E090932902809328020E94BD052D
:1014000087E00E94E3006C01019709F05FCF6CE276
:1014100071E080E090E00E949A0280912602909113
:101420002702892B09F052CF80912302882309F4E7
:101430004DCFD0922902C09228020E94BD0546CF0E
:1014400060E080E00E9466068FE191E00E94140552
:1014500061E080E00E94660680E391E00E9414054E
:1014600061E087E00E946606809107020E947B0689
:1014700061E089E00E946606809108020E947B0676
:1014800061E08BE00E946606809109020E947B0663
:1014900061E08DE00E94660680910A020E947B0650
:1014A00061E08FE00E94660680910B020E947B063D
:1014B00082E00E94E300019729F460E390E080E07D
:1014C0000E94A80383E00E94E300019729F461E3EE
:1014D00081E090E00E94A80384E00E94E30001976D
:1014E00029F462E382E090E00E94A80385E00E9474
:1014F000E300019729F463E383E090E00E94A803EE
:1015000086E00E94E300019729F464E384E090E020
:101510000E94A8038091210290912202059761F414
:1015200060E971E080E090E00E949A02D093290285
:10153000C09328020E94BD0587E00E94E300019746
:1015400009F0C4CE6CE271E080E090E00E949A0263
:1015500080912002882309F4B9CED0932902C09348
:1015600028026BCF60E080E00E94660688E391E08D
:101570000E9414058DE0C82E82E0D82EE12C61E097
:101580008E2D0E946606F60181916F010E947B06F6
:10159000E394F0E1EF12F3CF80911F0281113CC080
:1015A00082E00E94E300019719F480E30E9439046D
:1015B00083E00E94E300019719F481E30E9439045B
:1015C00084E00E94E300019719F482E30E94390449
:1015D00085E00E94E300019719F483E30E94390437
:1015E00086E00E94E300019719F484E30E94390425
:1015F00080911D0290911E02409771F460E971E0A4
:1016000080E090E00E949A0283E090E090932902AB
:10161000809328020E94BD0587E00E94E3000197A5
:10162000E9F46CE271E080E090E00E949A0280911F
:101630001F028823B1F06CE271E080E090E00E942C
:101640009A020E94BD05EDE0F2E0F19282E0ED31F8
:10165000F807D9F710921E0210921D0210921F0275
:1016600035CE83E090E090932902809328020E9477
:10167000BD05F4CF0E94970164EF71E080E090E037
:101680000E949A028DE00E943A0181E080930C0250
:1016900087E00E94E3000197F1F46CE271E080E0E2
:1016A00090E00E949A02D0932902C09328020E94DF
:1016B0000A040E94BD05EDE0F2E0F19282E0ED3116
:1016C000F807D9F710921E0210921D0280E3809352
:1016D000000110920C0260E080E00E94660689E43E
:1016E00091E00E94140561E080E00E94660680910E
:1016F0001F02811104C08AE591E00E9414058091C7
:101700001F02882309F4E2CD8BE691E00E941405C4
:10171000DDCDEBE3F2E01382128286E091E091836B
:10172000808383E184838FEF858382E1868381E1F7
:10173000878380E180878FE081878EE082871386B0
:10174000148615861686178681E00E94C50589EBEA
:1017500091E00E94850886EB91E00E94850883EB6A
:1017600091E00E94850880EB91E00E9485088DEA57
:1017700091E00C948508052E97FB1EF400940E94BE
:10178000D20B57FD07D00E94ED0B07FC03D04EF49F
:101790000C94D20B50954095309521953F4F4F4F6B
:1017A0005F4F089590958095709561957F4F8F4F0D
:1017B0009F4F08950E940F0CA59F900DB49F900D10
:1017C000A49F800D911D11240895B7FF0C94DA0B8E
:1017D0000E94DA0B821B930B0895A1E21A2EAA1B1A
:1017E000BB1BFD010DC0AA1FBB1FEE1FFF1FA217D1
:1017F000B307E407F50720F0A21BB30BE40BF50BCE
:10180000661F771F881F991F1A9469F76095709556
:10181000809590959B01AC01BD01CF010895A29FD9
:10182000B001B39FC001A39F700D811D1124911DB4
:10183000B29F700D811D1124911D0895991B79E0AF
:1018400004C0991F961708F0961B881F7A95C9F750
:1018500080950895EE0FFF1F0590F491E02D0994F7
:04186000F894FFCF2A
:1018640030FF0000000075068D00A503A4034D4F52
:101874004E5445204F204155544F4D41544F004440
:101884004546494E41204F532046494E4149530055
:1018940046696E6169732000494E534952412041A3
:1018A4002050414C41565241002020202050414CB0
:1018B4004156524120202020200020202020564143
:1018C4004C49444120202020202000202020204971
:0C18D4004E56414C494441202020200089
:00000001FF
